{
  "contractName": "Garment",
  "abi": [
    {
      "inputs": [
        {
          "internalType": "string",
          "name": "_name",
          "type": "string"
        },
        {
          "internalType": "string",
          "name": "_symbol",
          "type": "string"
        }
      ],
      "stateMutability": "nonpayable",
      "type": "constructor"
    },
    {
      "anonymous": false,
      "inputs": [
        {
          "indexed": true,
          "internalType": "address",
          "name": "owner",
          "type": "address"
        },
        {
          "indexed": true,
          "internalType": "address",
          "name": "approved",
          "type": "address"
        },
        {
          "indexed": true,
          "internalType": "uint256",
          "name": "tokenId",
          "type": "uint256"
        }
      ],
      "name": "Approval",
      "type": "event"
    },
    {
      "anonymous": false,
      "inputs": [
        {
          "indexed": true,
          "internalType": "address",
          "name": "owner",
          "type": "address"
        },
        {
          "indexed": true,
          "internalType": "address",
          "name": "operator",
          "type": "address"
        },
        {
          "indexed": false,
          "internalType": "bool",
          "name": "approved",
          "type": "bool"
        }
      ],
      "name": "ApprovalForAll",
      "type": "event"
    },
    {
      "anonymous": false,
      "inputs": [
        {
          "indexed": true,
          "internalType": "address",
          "name": "previousOwner",
          "type": "address"
        },
        {
          "indexed": true,
          "internalType": "address",
          "name": "newOwner",
          "type": "address"
        }
      ],
      "name": "OwnershipTransferred",
      "type": "event"
    },
    {
      "anonymous": false,
      "inputs": [
        {
          "indexed": false,
          "internalType": "uint256",
          "name": "id",
          "type": "uint256"
        },
        {
          "indexed": false,
          "internalType": "address",
          "name": "owner",
          "type": "address"
        },
        {
          "indexed": false,
          "internalType": "address",
          "name": "artist",
          "type": "address"
        },
        {
          "indexed": false,
          "internalType": "uint256",
          "name": "price",
          "type": "uint256"
        },
        {
          "indexed": false,
          "internalType": "string",
          "name": "title",
          "type": "string"
        },
        {
          "indexed": false,
          "internalType": "string",
          "name": "description",
          "type": "string"
        },
        {
          "indexed": false,
          "internalType": "string",
          "name": "size",
          "type": "string"
        },
        {
          "indexed": false,
          "internalType": "string",
          "name": "color",
          "type": "string"
        },
        {
          "indexed": false,
          "internalType": "string",
          "name": "fabric",
          "type": "string"
        },
        {
          "indexed": false,
          "internalType": "string",
          "name": "image",
          "type": "string"
        },
        {
          "indexed": false,
          "internalType": "uint256",
          "name": "timestamp",
          "type": "uint256"
        }
      ],
      "name": "Sale",
      "type": "event"
    },
    {
      "anonymous": false,
      "inputs": [
        {
          "indexed": true,
          "internalType": "address",
          "name": "from",
          "type": "address"
        },
        {
          "indexed": true,
          "internalType": "address",
          "name": "to",
          "type": "address"
        },
        {
          "indexed": true,
          "internalType": "uint256",
          "name": "tokenId",
          "type": "uint256"
        }
      ],
      "name": "Transfer",
      "type": "event"
    },
    {
      "inputs": [
        {
          "internalType": "address",
          "name": "to",
          "type": "address"
        },
        {
          "internalType": "uint256",
          "name": "tokenId",
          "type": "uint256"
        }
      ],
      "name": "approve",
      "outputs": [],
      "stateMutability": "nonpayable",
      "type": "function"
    },
    {
      "inputs": [
        {
          "internalType": "address",
          "name": "owner",
          "type": "address"
        }
      ],
      "name": "balanceOf",
      "outputs": [
        {
          "internalType": "uint256",
          "name": "",
          "type": "uint256"
        }
      ],
      "stateMutability": "view",
      "type": "function",
      "constant": true
    },
    {
      "inputs": [
        {
          "internalType": "uint256",
          "name": "tokenId",
          "type": "uint256"
        }
      ],
      "name": "getApproved",
      "outputs": [
        {
          "internalType": "address",
          "name": "",
          "type": "address"
        }
      ],
      "stateMutability": "view",
      "type": "function",
      "constant": true
    },
    {
      "inputs": [
        {
          "internalType": "address",
          "name": "owner",
          "type": "address"
        },
        {
          "internalType": "address",
          "name": "operator",
          "type": "address"
        }
      ],
      "name": "isApprovedForAll",
      "outputs": [
        {
          "internalType": "bool",
          "name": "",
          "type": "bool"
        }
      ],
      "stateMutability": "view",
      "type": "function",
      "constant": true
    },
    {
      "inputs": [],
      "name": "name",
      "outputs": [
        {
          "internalType": "string",
          "name": "",
          "type": "string"
        }
      ],
      "stateMutability": "view",
      "type": "function",
      "constant": true
    },
    {
      "inputs": [],
      "name": "owner",
      "outputs": [
        {
          "internalType": "address",
          "name": "",
          "type": "address"
        }
      ],
      "stateMutability": "view",
      "type": "function",
      "constant": true
    },
    {
      "inputs": [
        {
          "internalType": "uint256",
          "name": "tokenId",
          "type": "uint256"
        }
      ],
      "name": "ownerOf",
      "outputs": [
        {
          "internalType": "address",
          "name": "",
          "type": "address"
        }
      ],
      "stateMutability": "view",
      "type": "function",
      "constant": true
    },
    {
      "inputs": [],
      "name": "renounceOwnership",
      "outputs": [],
      "stateMutability": "nonpayable",
      "type": "function"
    },
    {
      "inputs": [
        {
          "internalType": "address",
          "name": "from",
          "type": "address"
        },
        {
          "internalType": "address",
          "name": "to",
          "type": "address"
        },
        {
          "internalType": "uint256",
          "name": "tokenId",
          "type": "uint256"
        }
      ],
      "name": "safeTransferFrom",
      "outputs": [],
      "stateMutability": "nonpayable",
      "type": "function"
    },
    {
      "inputs": [
        {
          "internalType": "address",
          "name": "from",
          "type": "address"
        },
        {
          "internalType": "address",
          "name": "to",
          "type": "address"
        },
        {
          "internalType": "uint256",
          "name": "tokenId",
          "type": "uint256"
        },
        {
          "internalType": "bytes",
          "name": "data",
          "type": "bytes"
        }
      ],
      "name": "safeTransferFrom",
      "outputs": [],
      "stateMutability": "nonpayable",
      "type": "function"
    },
    {
      "inputs": [
        {
          "internalType": "address",
          "name": "operator",
          "type": "address"
        },
        {
          "internalType": "bool",
          "name": "approved",
          "type": "bool"
        }
      ],
      "name": "setApprovalForAll",
      "outputs": [],
      "stateMutability": "nonpayable",
      "type": "function"
    },
    {
      "inputs": [
        {
          "internalType": "bytes4",
          "name": "interfaceId",
          "type": "bytes4"
        }
      ],
      "name": "supportsInterface",
      "outputs": [
        {
          "internalType": "bool",
          "name": "",
          "type": "bool"
        }
      ],
      "stateMutability": "view",
      "type": "function",
      "constant": true
    },
    {
      "inputs": [],
      "name": "symbol",
      "outputs": [
        {
          "internalType": "string",
          "name": "",
          "type": "string"
        }
      ],
      "stateMutability": "view",
      "type": "function",
      "constant": true
    },
    {
      "inputs": [
        {
          "internalType": "uint256",
          "name": "index",
          "type": "uint256"
        }
      ],
      "name": "tokenByIndex",
      "outputs": [
        {
          "internalType": "uint256",
          "name": "",
          "type": "uint256"
        }
      ],
      "stateMutability": "view",
      "type": "function",
      "constant": true
    },
    {
      "inputs": [
        {
          "internalType": "address",
          "name": "owner",
          "type": "address"
        },
        {
          "internalType": "uint256",
          "name": "index",
          "type": "uint256"
        }
      ],
      "name": "tokenOfOwnerByIndex",
      "outputs": [
        {
          "internalType": "uint256",
          "name": "",
          "type": "uint256"
        }
      ],
      "stateMutability": "view",
      "type": "function",
      "constant": true
    },
    {
      "inputs": [
        {
          "internalType": "uint256",
          "name": "tokenId",
          "type": "uint256"
        }
      ],
      "name": "tokenURI",
      "outputs": [
        {
          "internalType": "string",
          "name": "",
          "type": "string"
        }
      ],
      "stateMutability": "view",
      "type": "function",
      "constant": true
    },
    {
      "inputs": [],
      "name": "totalSupply",
      "outputs": [
        {
          "internalType": "uint256",
          "name": "",
          "type": "uint256"
        }
      ],
      "stateMutability": "view",
      "type": "function",
      "constant": true
    },
    {
      "inputs": [
        {
          "internalType": "address",
          "name": "from",
          "type": "address"
        },
        {
          "internalType": "address",
          "name": "to",
          "type": "address"
        },
        {
          "internalType": "uint256",
          "name": "tokenId",
          "type": "uint256"
        }
      ],
      "name": "transferFrom",
      "outputs": [],
      "stateMutability": "nonpayable",
      "type": "function"
    },
    {
      "inputs": [
        {
          "internalType": "address",
          "name": "newOwner",
          "type": "address"
        }
      ],
      "name": "transferOwnership",
      "outputs": [],
      "stateMutability": "nonpayable",
      "type": "function"
    },
    {
      "inputs": [
        {
          "internalType": "uint256",
          "name": "price",
          "type": "uint256"
        },
        {
          "internalType": "string",
          "name": "title",
          "type": "string"
        },
        {
          "internalType": "string",
          "name": "description",
          "type": "string"
        },
        {
          "internalType": "string",
          "name": "size",
          "type": "string"
        },
        {
          "internalType": "string",
          "name": "color",
          "type": "string"
        },
        {
          "internalType": "string",
          "name": "fabric",
          "type": "string"
        },
        {
          "internalType": "string",
          "name": "image",
          "type": "string"
        }
      ],
      "name": "createGarment",
      "outputs": [],
      "stateMutability": "payable",
      "type": "function",
      "payable": true
    },
    {
      "inputs": [
        {
          "internalType": "uint256",
          "name": "tokenId",
          "type": "uint256"
        }
      ],
      "name": "purchaseGarment",
      "outputs": [],
      "stateMutability": "payable",
      "type": "function",
      "payable": true
    },
    {
      "inputs": [
        {
          "internalType": "uint256",
          "name": "id",
          "type": "uint256"
        },
        {
          "internalType": "uint256",
          "name": "newPrice",
          "type": "uint256"
        }
      ],
      "name": "changePrice",
      "outputs": [
        {
          "internalType": "bool",
          "name": "",
          "type": "bool"
        }
      ],
      "stateMutability": "nonpayable",
      "type": "function"
    },
    {
      "inputs": [],
      "name": "getAllNFTs",
      "outputs": [
        {
          "components": [
            {
              "internalType": "uint256",
              "name": "id",
              "type": "uint256"
            },
            {
              "internalType": "address",
              "name": "owner",
              "type": "address"
            },
            {
              "internalType": "address",
              "name": "artist",
              "type": "address"
            },
            {
              "internalType": "uint256",
              "name": "price",
              "type": "uint256"
            },
            {
              "internalType": "string",
              "name": "title",
              "type": "string"
            },
            {
              "internalType": "string",
              "name": "description",
              "type": "string"
            },
            {
              "internalType": "string",
              "name": "size",
              "type": "string"
            },
            {
              "internalType": "string",
              "name": "color",
              "type": "string"
            },
            {
              "internalType": "string",
              "name": "fabric",
              "type": "string"
            },
            {
              "internalType": "string",
              "name": "image",
              "type": "string"
            },
            {
              "internalType": "uint256",
              "name": "timestamp",
              "type": "uint256"
            }
          ],
          "internalType": "struct Garment.GarmentDetails[]",
          "name": "",
          "type": "tuple[]"
        }
      ],
      "stateMutability": "view",
      "type": "function",
      "constant": true
    },
    {
      "inputs": [
        {
          "internalType": "uint256",
          "name": "id",
          "type": "uint256"
        }
      ],
      "name": "getNFT",
      "outputs": [
        {
          "components": [
            {
              "internalType": "uint256",
              "name": "id",
              "type": "uint256"
            },
            {
              "internalType": "address",
              "name": "owner",
              "type": "address"
            },
            {
              "internalType": "address",
              "name": "artist",
              "type": "address"
            },
            {
              "internalType": "uint256",
              "name": "price",
              "type": "uint256"
            },
            {
              "internalType": "string",
              "name": "title",
              "type": "string"
            },
            {
              "internalType": "string",
              "name": "description",
              "type": "string"
            },
            {
              "internalType": "string",
              "name": "size",
              "type": "string"
            },
            {
              "internalType": "string",
              "name": "color",
              "type": "string"
            },
            {
              "internalType": "string",
              "name": "fabric",
              "type": "string"
            },
            {
              "internalType": "string",
              "name": "image",
              "type": "string"
            },
            {
              "internalType": "uint256",
              "name": "timestamp",
              "type": "uint256"
            }
          ],
          "internalType": "struct Garment.GarmentDetails",
          "name": "",
          "type": "tuple"
        }
      ],
      "stateMutability": "view",
      "type": "function",
      "constant": true
    },
    {
      "inputs": [],
      "name": "getGarmentsByOwner",
      "outputs": [
        {
          "components": [
            {
              "internalType": "uint256",
              "name": "id",
              "type": "uint256"
            },
            {
              "internalType": "address",
              "name": "owner",
              "type": "address"
            },
            {
              "internalType": "address",
              "name": "artist",
              "type": "address"
            },
            {
              "internalType": "uint256",
              "name": "price",
              "type": "uint256"
            },
            {
              "internalType": "string",
              "name": "title",
              "type": "string"
            },
            {
              "internalType": "string",
              "name": "description",
              "type": "string"
            },
            {
              "internalType": "string",
              "name": "size",
              "type": "string"
            },
            {
              "internalType": "string",
              "name": "color",
              "type": "string"
            },
            {
              "internalType": "string",
              "name": "fabric",
              "type": "string"
            },
            {
              "internalType": "string",
              "name": "image",
              "type": "string"
            },
            {
              "internalType": "uint256",
              "name": "timestamp",
              "type": "uint256"
            }
          ],
          "internalType": "struct Garment.GarmentDetails[]",
          "name": "",
          "type": "tuple[]"
        }
      ],
      "stateMutability": "view",
      "type": "function",
      "constant": true
    }
  ],
  "bytecode": "0x608060405234620003735762002ccd803803806200001d8162000378565b9283398101604082820312620003735781516001600160401b0392908381116200037357826200004f9183016200039e565b906020928382015185811162000373576200006b92016200039e565b9281518181116200035d576000938454916001948584811c9416801562000352575b838510146200033e578190601f94858111620002eb575b508390858311600114620002875788926200027b575b5050600019600383901b1c191690851b1785555b8551928311620002675783548481811c911680156200025c575b82821014620002485782811162000200575b50809183116001146200019a57508394829394926200018e575b5050600019600383901b1c191690821b1790555b600a8054336001600160a01b031982168117909255604051926001600160a01b03909116907f8be0079c531659141344cd1fd0a4f28419497f9722a3daafe3b4186f6b6457e09080a3662386f26fc10000600c55600a600d556128bc9081620004118239f35b01519050388062000114565b90601f198316958486528286209286905b888210620001e85750508385969710620001ce575b505050811b01905562000128565b015160001960f88460031b161c19169055388080620001c0565b808785968294968601518155019501930190620001ab565b8486528186208380860160051c8201928487106200023e575b0160051c019085905b82811062000232575050620000fa565b87815501859062000222565b9250819262000219565b634e487b7160e01b86526022600452602486fd5b90607f1690620000e8565b634e487b7160e01b85526041600452602485fd5b015190503880620000ba565b8880528489208894509190601f1984168a5b87828210620002d45750508411620002ba575b505050811b018555620000ce565b015160001960f88460031b161c19169055388080620002ac565b8385015186558b9790950194938401930162000299565b9091508780528388208580850160051c82019286861062000334575b918991869594930160051c01915b82811062000325575050620000a4565b8a815585945089910162000315565b9250819262000307565b634e487b7160e01b87526022600452602487fd5b93607f16936200008d565b634e487b7160e01b600052604160045260246000fd5b600080fd5b6040519190601f01601f191682016001600160401b038111838210176200035d57604052565b919080601f84011215620003735782516001600160401b0381116200035d57602090620003d4601f8201601f1916830162000378565b92818452828287010111620003735760005b818110620003fc57508260009394955001015290565b8581018301518482018401528201620003e656fe608080604052600436101561001357600080fd5b60003560e01c90816301ffc9a71461194f5750806306fdde03146118ac578063081812fc1461188e578063095ea7b31461171457806318160ddd146116f657806323b872dd146116d25780632f745c59146116ab57806342842e0e146116785780634f6ccce7146115e7578063576f7ea71461159b5780635a7749bc146114445780636352211e1461141457806363a0917114610a2957806370a08231146109fe578063715018a6146109a15780638da5cb5b1461097857806395d89b41146108b357806399c1348d14610545578063a22cb46514610477578063b3de019c146103d7578063b88d4fde14610350578063c87b56dd146102e3578063e0391b0914610250578063e985e9c5146101fa5763f2fde38b1461013257600080fd5b346101f55760203660031901126101f55761014b611a14565b610153611c60565b6001600160a01b039081169081156101a157600a80546001600160a01b031981168417909155167f8be0079c531659141344cd1fd0a4f28419497f9722a3daafe3b4186f6b6457e0600080a3005b60405162461bcd60e51b815260206004820152602660248201527f4f776e61626c653a206e6577206f776e657220697320746865207a65726f206160448201526564647265737360d01b6064820152608490fd5b600080fd5b346101f55760403660031901126101f557610213611a14565b61021b611a2a565b9060018060a01b03809116600052600560205260406000209116600052602052602060ff604060002054166040519015158152f35b346101f55760003660031901126101f557600e5461026d816126f5565b61027a6040519182611bcf565b818152600e60009081527fbb7b4a454dc3493923482f07822329ed19e8244eff582cc204f8554c3620c3fd929060208084015b8383106102c657604051806102c28782611b36565b0390f35b600b826001926102d58961270c565b8152019601920191946102ad565b346101f55760203660031901126101f55760043560009081526002602052604090205461031a906001600160a01b03161515611d2f565b600060405161032881611bb4565b526102c260405161033881611bb4565b600081526040519182916020835260208301906119d4565b346101f55760803660031901126101f557610369611a14565b610371611a2a565b90606435906044356001600160401b0383116101f557366023840112156101f5576103d5936103ad6103d0943690602481600401359101611c0b565b926103c06103bb8433611f80565b611ea7565b6103cb838383612048565b612391565b611f5c565b005b346101f55760403660031901126101f5576024356004358115610441576104066104018233611f80565b6125d2565b600019810190811161042b5761041d6003916124db565b500155602060405160018152f35b634e487b7160e01b600052601160045260246000fd5b60405162461bcd60e51b815260206004820152600e60248201526d457468657220746f6f206c6f772160901b6044820152606490fd5b346101f55760403660031901126101f557610490611a14565b602435908115158092036101f5576001600160a01b03169033821461050457336000526005602052604060002082600052602052604060002060ff1981541660ff83161790556040519081527f17307eab39ab6107e8899845ad3d59bd9653f200f220920489ca2b5937696c3160203392a3005b60405162461bcd60e51b815260206004820152601960248201527822a9219b99189d1030b8383937bb32903a379031b0b63632b960391b6044820152606490fd5b60203660031901126101f5576004356000818152600260205260409020546001600160a01b0316156108775760001981019080821161042b57610587826124db565b509060038201805492833410610832576105aa6105a48433611f80565b156125d2565b600181019060018060a01b039485835416946002830195878754168114600014610800576105f5926105e26105eb926000929061259a565b8888541661259a565b3387855416612048565b81546001600160a01b03199081163317835592610611876124db565b9590956107ea5782860361074d575b878761062b826124db565b505490610637836124db565b50600201541691610647816124db565b506003015490610656816124db565b50610660826124db565b5061066a836124db565b50610674846124db565b509161067f856124db565b509361068a866124db565b5095610695906124db565b50600a015496604051998a998a523360208b015260408a015260608901526101608060808a0152880190600401906106cc91611dd3565b87810360a08901526106e091600501611dd3565b86810360c08801526106f491600601611dd3565b85810360e087015261070891600701611dd3565b84810361010086015261071d91600801611dd3565b83810361012085015261073291600901611dd3565b906101408301520360008051602061286783398151915291a1005b600a9485948454885588600189019154168282541617905587600288019254169082541617905554600385015561078a6004820160048601612617565b61079a6005820160058601612617565b6107aa6006820160068601612617565b6107ba6007820160078601612617565b6107ca6008820160088601612617565b6107da6009820160098601612617565b0154910155828080808080610620565b634e487b7160e01b600052600060045260246000fd5b600d5480840290848204148415171561042b576064900480840393841161042b576105e26105eb926105f5959061259a565b60405162461bcd60e51b815260206004820152601b60248201527f457468657220746f6f206c6f7720666f722070757263686173652100000000006044820152606490fd5b60405162461bcd60e51b8152602060048201526014602482015273151bdad95b88191bd95cc81b9bdd08195e1a5cdd60621b6044820152606490fd5b346101f55760003660031901126101f557604051600090600180546108d781611d99565b808452908281169081156109505750600114610912575b6102c2836108fe81870382611bcf565b6040519182916020835260208301906119d4565b92508060005260209283600020916000925b82841061093d575050508101909101906108fe816108ee565b8054858501870152928501928101610924565b6102c295506108fe93506020915091849260ff191682840152151560051b82010193506108ee565b346101f55760003660031901126101f557600a546040516001600160a01b039091168152602090f35b346101f55760003660031901126101f5576109ba611c60565b600a80546001600160a01b031981169091556000906001600160a01b03167f8be0079c531659141344cd1fd0a4f28419497f9722a3daafe3b4186f6b6457e08280a3005b346101f55760203660031901126101f5576020610a21610a1c611a14565b611cb8565b604051908152f35b60e03660031901126101f5576024356001600160401b0381116101f557610a54903690600401611c42565b6044356001600160401b0381116101f557610a73903690600401611c42565b906064356001600160401b0381116101f557610a93903690600401611c42565b6084356001600160401b0381116101f557610ab2903690600401611c42565b60a4356001600160401b0381116101f557610ad1903690600401611c42565b60c4356001600160401b0381116101f557610af0903690600401611c42565b91600c548034106113cf57600a546001600160a01b03169033821461137257610b189161259a565b6001600b54019384600b55604051610b2f81611bb4565b60008152331561132e57600086815260026020526040902054610b5e906001600160a01b031615155b1561254e565b60085486600052600960205280604060002055600160401b8110156110a757610c6a91610bb388610b988460016103d096016008556124aa565b90919082549060031b600019811b9283911b16911916179055565b610bbc33611cb8565b33600052600660205260406000208160005260205288604060002055886000526007602052604060002055610c09610b5889600052600260205260018060a01b0360406000205416151590565b33600052600360205260406000206001815401905587600052600260205260406000203360018060a01b0319825416179055873360007fddf252ad1be2c89b69c2b068fc378daa952ba7f163c4a11628f55a4df523b3ef8180a48733612271565b60405196610c7788611b98565b85885233602089015233604089015260043560608901528660808901528060a08901528160c08901528260e0890152836101008901528461012089015242610140890152600e54600160401b8110156110a757806001610cda9201600e556124db565b9890986107ea5780518955602081015160018a0180546001600160a01b039283166001600160a01b031991821617909155604083015160028c018054919093169116179055606081015160038a015560808101518051906001600160401b0382116110a7578190610d5b828d6004610d5481830154611d99565b91016124fa565b602090601f83116001146112bc576000926112b1575b50508160011b916000199060031b1c19161760048a01555b60a08101518051906001600160401b0382116110a7578190610db4828d6005610d5481830154611d99565b602090601f831160011461123f57600092611234575b50508160011b916000199060031b1c19161760058a01555b60c08101518051906001600160401b0382116110a7578190610e0d828d6006610d5481830154611d99565b602090601f83116001146111c2576000926111b7575b50508160011b916000199060031b1c19161760068a01555b60e08101518051906001600160401b0382116110a7578190610e66828d6007610d5481830154611d99565b602090601f83116001146111455760009261113a575b50508160011b916000199060031b1c19161760078a01555b6101008101518051906001600160401b0382116110a7578190610ec0828d6008610d5481830154611d99565b602090601f83116001146110c8576000926110bd575b50508160011b916000199060031b1c19161760088a01555b6101208101518051906001600160401b0382116110a757610f18828c6009610d5481830154611d99565b602090601f831160011461100d57610fd8946000805160206128678339815191529c600a610140610fe79a9787610fca98610ff69f9e9c98610fbc98600092611002575b50508160011b916000199060031b1c19161760098501555b0151910155610fae6040519c8d9c8d528c6020339101528c6040339101528c606060043591015260808d61016091829101528d01906119d4565b908b820360a08d01526119d4565b9089820360c08b01526119d4565b9087820360e08901526119d4565b908582036101008701526119d4565b908382036101208501526119d4565b426101408301520390a1005b015190503880610f5c565b9060098c0160005260206000209160005b601f198516811061108f5750946000805160206128678339815191529c600a610140610fe79a97600188610ff69f9e9c98610fbc98610fd89d610fca9c601f19811610611076575b505050811b016009850155610f74565b015160001960f88460031b161c19169055388080611066565b9192602060018192868501518155019401920161101e565b634e487b7160e01b600052604160045260246000fd5b015190508b80610ed6565b925060088c016000526020600020906000935b601f198416851061111f576001945083601f19811610611106575b505050811b0160088a0155610eee565b015160001960f88460031b161c191690558b80806110f6565b818101518355602094850194600190930192909101906110db565b015190508b80610e7c565b925060078c016000526020600020906000935b601f198416851061119c576001945083601f19811610611183575b505050811b0160078a0155610e94565b015160001960f88460031b161c191690558b8080611173565b81810151835560209485019460019093019290910190611158565b015190508b80610e23565b925060068c016000526020600020906000935b601f1984168510611219576001945083601f19811610611200575b505050811b0160068a0155610e3b565b015160001960f88460031b161c191690558b80806111f0565b818101518355602094850194600190930192909101906111d5565b015190508b80610dca565b925060058c016000526020600020906000935b601f1984168510611296576001945083601f1981161061127d575b505050811b0160058a0155610de2565b015160001960f88460031b161c191690558b808061126d565b81810151835560209485019460019093019290910190611252565b015190508b80610d71565b925060048c016000526020600020906000935b601f1984168510611313576001945083601f198116106112fa575b505050811b0160048a0155610d89565b015160001960f88460031b161c191690558b80806112ea565b818101518355602094850194600190930192909101906112cf565b606460405162461bcd60e51b815260206004820152602060248201527f4552433732313a206d696e7420746f20746865207a65726f20616464726573736044820152fd5b60405162461bcd60e51b815260206004820152602f60248201527f546865206f776e6572206f6620746865206d61726b6574706c6163652063616e60448201526e6e6f7420637265617465204e46542160881b6064820152608490fd5b60405162461bcd60e51b815260206004820152601a60248201527f457468657220746f6f206c6f7720666f72206d696e74696e67210000000000006044820152606490fd5b346101f55760203660031901126101f5576020611432600435611d76565b6040516001600160a01b039091168152f35b346101f55760003660031901126101f55761145e33611cb8565b611467816126f5565b6114746040519182611bcf565b818152601f199182611485826126f5565b0190602091368385013760005b8181106115785750508151916114a7836126f5565b936114b56040519586611bcf565b8385526114c1846126f5565b018260005b8281106115625750505060009060005b8481106114eb57604051806102c28882611b36565b6114f58183612852565b51600019810190811161042b5761150e611514916124db565b5061270c565b808501516001600160a01b03163314611537575b5061153290612843565b6114d6565b8361155b9161154a61153294968a612852565b526115558189612852565b50612843565b9290611528565b61156a6127f1565b8282890101520183906114c6565b80611586611596923361241c565b6115908287612852565b52612843565b611492565b346101f55760203660031901126101f5576004356115b76127f1565b50600019810190811161042b576115d361150e6102c2926124db565b604051918291602083526020830190611a75565b346101f55760203660031901126101f55760043560085481101561161e576116106020916124aa565b90546040519160031b1c8152f35b60405162461bcd60e51b815260206004820152602c60248201527f455243373231456e756d657261626c653a20676c6f62616c20696e646578206f60448201526b7574206f6620626f756e647360a01b6064820152608490fd5b346101f5576103d56103d061168c36611a40565b906040519261169a84611bb4565b600084526103c06103bb8433611f80565b346101f55760403660031901126101f5576020610a216116c9611a14565b6024359061241c565b346101f5576103d56116e336611a40565b916116f16103bb8433611f80565b612048565b346101f55760003660031901126101f5576020600854604051908152f35b346101f55760403660031901126101f55761172d611a14565b602435906001600160a01b03808061174485611d76565b1692169180831461183f5780331490811561181a575b50156117af57600083815260046020526040902080546001600160a01b0319168317905561178783611d76565b167f8c5be1e5ebec7d5bd14f71427d1e84f3dd0314c0f7b2291e5b200ac8c7c3b925600080a4005b60405162461bcd60e51b815260206004820152603d60248201527f4552433732313a20617070726f76652063616c6c6572206973206e6f7420746f60448201527f6b656e206f776e6572206f7220617070726f76656420666f7220616c6c0000006064820152608490fd5b9050600052600560205260406000203360005260205260ff604060002054168461175a565b60405162461bcd60e51b815260206004820152602160248201527f4552433732313a20617070726f76616c20746f2063757272656e74206f776e656044820152603960f91b6064820152608490fd5b346101f55760203660031901126101f5576020611432600435611e69565b346101f55760003660031901126101f5576040516000906000546118cf81611d99565b80835260019180831690811561095057506001146118f7576102c2836108fe81870382611bcf565b600080805260209450917f290decd9548b62a8d60345a988386fc84ba6bc95484008f6362f93160ef3e5635b82841061193c575050508101909101906108fe816108ee565b8054858501870152928501928101611923565b346101f55760203660031901126101f5576004359063ffffffff60e01b82168092036101f55760209163780e9d6360e01b8114908115611991575b5015158152f35b6380ac58cd60e01b8114915081156119c3575b81156119b2575b508361198a565b6301ffc9a760e01b149050836119ab565b635b5e139f60e01b811491506119a4565b919082519283825260005b848110611a00575050826000602080949584010152601f8019910116010190565b6020818301810151848301820152016119df565b600435906001600160a01b03821682036101f557565b602435906001600160a01b03821682036101f557565b60609060031901126101f5576001600160a01b039060043582811681036101f5579160243590811681036101f5579060443590565b908151815260018060a01b03806020840151166020830152604083015116604082015260608201516060820152611b28611b14611b00611aee611adc611aca60808801516101608060808a01528801906119d4565b60a088015187820360a08901526119d4565b60c087015186820360c08801526119d4565b60e086015185820360e08701526119d4565b6101008086015190858303908601526119d4565b6101208085015190848303908501526119d4565b916101408091015191015290565b602080820190808352835180925260408301928160408460051b8301019501936000915b848310611b6a5750505050505090565b9091929394958480611b88600193603f198682030187528a51611a75565b9801930193019194939290611b5a565b61016081019081106001600160401b038211176110a757604052565b602081019081106001600160401b038211176110a757604052565b90601f801991011681019081106001600160401b038211176110a757604052565b6001600160401b0381116110a757601f01601f191660200190565b929192611c1782611bf0565b91611c256040519384611bcf565b8294818452818301116101f5578281602093846000960137010152565b9080601f830112156101f557816020611c5d93359101611c0b565b90565b600a546001600160a01b03163303611c7457565b606460405162461bcd60e51b815260206004820152602060248201527f4f776e61626c653a2063616c6c6572206973206e6f7420746865206f776e65726044820152fd5b6001600160a01b03168015611cd857600052600360205260406000205490565b60405162461bcd60e51b815260206004820152602960248201527f4552433732313a2061646472657373207a65726f206973206e6f7420612076616044820152683634b21037bbb732b960b91b6064820152608490fd5b15611d3657565b60405162461bcd60e51b8152602060048201526018602482015277115490cdcc8c4e881a5b9d985b1a59081d1bdad95b88125160421b6044820152606490fd5b6000908152600260205260409020546001600160a01b0316611c5d811515611d2f565b90600182811c92168015611dc9575b6020831014611db357565b634e487b7160e01b600052602260045260246000fd5b91607f1691611da8565b9060009291805491611de483611d99565b918282526001938481169081600014611e465750600114611e06575b50505050565b90919394506000526020928360002092846000945b838610611e32575050505001019038808080611e00565b805485870183015294019385908201611e1b565b9294505050602093945060ff191683830152151560051b01019038808080611e00565b600081815260026020526040902054611e8c906001600160a01b03161515611d2f565b6000908152600460205260409020546001600160a01b031690565b15611eae57565b60405162461bcd60e51b815260206004820152602d60248201527f4552433732313a2063616c6c6572206973206e6f7420746f6b656e206f776e6560448201526c1c881bdc88185c1c1c9bdd9959609a1b6064820152608490fd5b60809060208152603260208201527f4552433732313a207472616e7366657220746f206e6f6e20455243373231526560408201527131b2b4bb32b91034b6b83632b6b2b73a32b960711b60608201520190565b15611f6357565b60405162461bcd60e51b815280611f7c60048201611f09565b0390fd5b906001600160a01b038080611f9484611d76565b16931691838314938415611fc7575b508315611fb1575b50505090565b611fbd91929350611e69565b1614388080611fab565b909350600052600560205260406000208260005260205260ff604060002054169238611fa3565b15611ff557565b60405162461bcd60e51b815260206004820152602560248201527f4552433732313a207472616e736665722066726f6d20696e636f72726563742060448201526437bbb732b960d91b6064820152608490fd5b61206c9161205584611d76565b6001600160a01b0393848416939185168414611fee565b8382169384156122205783918261217d575060085460008781526009602052604090208190559150600160401b8210156110a7576120d2926120b987610b988560018997016008556124aa565b82860361214a575b506120cb86611d76565b1614611fee565b7fddf252ad1be2c89b69c2b068fc378daa952ba7f163c4a11628f55a4df523b3ef600084815260046020526040812060018060a01b03199081815416905583825260036020526040822060001981540190558482526040822060018154019055858252600260205284604083209182541617905580a4565b61215390611cb8565b604060008781526006602052818120838252602052888282205588815260076020522055386120c1565b85830361218f575b506120d2926120b9565b61219a919250611cb8565b60001981019190821161042b576120d292849260009088825260209060078252604091828420548281036121e9575b508a84528383812055868452600681528284209184525281205592612185565b87855260068252838520838652825283852054888652600683528486208287528352808587205585526007825283852055386121c9565b60405162461bcd60e51b8152602060048201526024808201527f4552433732313a207472616e7366657220746f20746865207a65726f206164646044820152637265737360e01b6064820152608490fd5b9192600092909190803b15612387576122bf946040518092630a85bd0160e11b9485835233600484015287602484015260448301526080606483015281878160209a8b9660848301906119d4565b03926001600160a01b03165af1849181612343575b50612332575050503d60001461232a573d6122ee81611bf0565b906122fc6040519283611bcf565b81528091833d92013e5b805191826123275760405162461bcd60e51b815280611f7c60048201611f09565b01fd5b506060612306565b6001600160e01b0319161492509050565b9091508581813d8311612380575b61235b8183611bcf565b8101031261237c57516001600160e01b03198116810361237c5790386122d4565b8480fd5b503d612351565b5050915050600190565b9293600093909291803b15612411579484916123eb9660405180948193630a85bd0160e11b9788845233600485015260018060a01b0380921660248501526044840152608060648401528260209b8c9760848301906119d4565b0393165af18491816123435750612332575050503d60001461232a573d6122ee81611bf0565b505050915050600190565b61242581611cb8565b8210156124515760018060a01b0316600052600660205260406000209060005260205260406000205490565b60405162461bcd60e51b815260206004820152602b60248201527f455243373231456e756d657261626c653a206f776e657220696e646578206f7560448201526a74206f6620626f756e647360a81b6064820152608490fd5b6008548110156124c557600860005260206000200190600090565b634e487b7160e01b600052603260045260246000fd5b600e548110156124c557600e600052600b602060002091020190600090565b90601f811161250857505050565b600091825260208220906020601f850160051c83019410612544575b601f0160051c01915b82811061253957505050565b81815560010161252d565b9092508290612524565b1561255557565b60405162461bcd60e51b815260206004820152601c60248201527f4552433732313a20746f6b656e20616c7265616479206d696e746564000000006044820152606490fd5b60008080938193829082156125c8575b6001600160a01b031690f1156125bc57565b6040513d6000823e3d90fd5b6108fc91506125aa565b156125d957565b60405162461bcd60e51b81526020600482015260166024820152754f7065726174696f6e204e6f7420416c6c6f7765642160501b6044820152606490fd5b908082146126f1576126298154611d99565b906001600160401b0382116110a757819061264e826126488654611d99565b866124fa565b600090601f83116001146126855760009261267a575b50508160011b916000199060031b1c1916179055565b015490503880612664565b81526020808220858352818320935090601f1985169083905b8282106126d85750509084600195949392106126bf575b505050811b019055565b015460001960f88460031b161c191690553880806126b5565b849581929585015481556001809101960194019061269e565b5050565b6001600160401b0381116110a75760051b60200190565b90604091610140600a84519261272184611b98565b8054845260018101546001600160a01b039081166020860152600282015416868501526003810154606085015285519395869461276c816127658160048701611dd3565b0382611bcf565b60808601528051612784816127658160058701611dd3565b60a0860152805161279c816127658160068701611dd3565b60c086015280516127b4816127658160078701611dd3565b60e086015280516127cc816127658160088701611dd3565b610100860152516127e4816127658160098601611dd3565b6101208501520154910152565b604051906127fe82611b98565b600061014083828152826020820152826040820152606083818301528060808301528060a08301528060c08301528060e0830152806101008301526101208201520152565b600019811461042b5760010190565b80518210156124c55760209160051b01019056feecc0b69b80fd1aaf501f71d1e78c8f3ab0b0636a54ed6e1180fdf585dbec2266a264697066735822122088f3d7ae5e12f5d479edb8b26ab84c2f82df5991cb8f45d245015bfdab6eb78364736f6c63430008110033",
  "immutableReferences": {},
  "source": "// SPDX-License-Identifier: MIT\npragma solidity >=0.7.0 <0.9.0;\n\nimport \"@openzeppelin/contracts/token/ERC721/ERC721.sol\";\nimport \"@openzeppelin/contracts/token/ERC721/extensions/ERC721Enumerable.sol\";\nimport \"@openzeppelin/contracts/access/Ownable.sol\";\nimport \"@openzeppelin/contracts/utils/Counters.sol\";\n\ncontract Garment is ERC721Enumerable, Ownable {\n    //using Strings for uint256;\n\n    using Counters for Counters.Counter;\n    Counters.Counter private germantIds; //Permette di gestire gli ID degli NFT\n    uint256 private cost; //Costo di creazione di un indumento\n    uint256 private artistRoyaltyPercentage; // Percentuale fissa della commissione dell'artista\n\n    event Sale(\n        uint256 id,\n        address owner,\n        address artist,\n        uint256 price,\n        string title,\n        string description,\n        string size,\n        string color,\n        string fabric,\n        string image,\n        uint256 timestamp\n    );\n\n    struct GarmentDetails {\n        uint256 id;\n        address owner;\n        address artist;\n        uint256 price;\n        string title;\n        string description;\n        string size; //Taglia dell'indumento\n        string color; //Colore dell'indumento\n        string fabric; //Tessuto dell'indumento\n        string image; //Immagine (base64) dell'indumento\n        uint256 timestamp; //Quando viene creato/aggiornato l'indumento\n    }\n\n    GarmentDetails[] minted;\n\n    constructor(\n        string memory _name,\n        string memory _symbol\n    ) ERC721(_name, _symbol) {\n        cost = 0.01 ether;\n        artistRoyaltyPercentage = 10;\n    }\n\n    function createGarment(\n        uint256 price,\n        string memory title,\n        string memory description,\n        string memory size,\n        string memory color,\n        string memory fabric,\n        string memory image\n    ) external payable {\n        require(msg.value >= cost, \"Ether too low for minting!\");\n        require(msg.sender != owner(), \"The owner of the marketplace cannot create NFT!\");\n        \n        payTo(owner(), cost); // Pagamento della commissione al creatore del marketplace\n\n        // Genero il nuovo ID per l'NFT\n        germantIds.increment();\n        uint256 newTokenId = germantIds.current();\n\n        // Creo il nuovo NFT e lo assegno all'artista come proprietario\n        _safeMint(msg.sender, newTokenId);\n\n        GarmentDetails memory newGarment = GarmentDetails(\n            newTokenId,\n            msg.sender,\n            msg.sender,\n            price,\n            title,\n            description,\n            size,\n            color,\n            fabric,\n            image,\n            block.timestamp\n        );\n\n        minted.push(newGarment);\n\n        emit Sale(\n            newTokenId,\n            msg.sender,\n            msg.sender,\n            price,\n            title,\n            description,\n            size,\n            color,\n            fabric,\n            image,\n            block.timestamp\n        );\n    }\n\n    // sends ethers to a specific account\n    function payTo(address to, uint256 amount) internal {\n        address payable recipient = payable(address(to));\n        recipient.transfer(amount); //Se la Transfer fallisce propaga errore e non va avanti\n    }\n\n    function purchaseGarment(uint256 tokenId) external payable {\n        // Verifica che il token esiste\n        require(_exists(tokenId), \"Token does not exist\");\n\n        // Ottieni i dettagli del NFT\n        GarmentDetails storage garment = minted[tokenId - 1];\n        // Verifica che il prezzo pagato corrisponda al prezzo dell'indumento\n        require(msg.value >= garment.price, \"Ether too low for purchase!\");\n        // Verifica che il proprietario non pu acquistare i propri NFT\n        require(!_isApprovedOrOwner(msg.sender, tokenId), \"Operation Not Allowed!\");\n\n        // Calcola le commissioni per l'artista e il creatore del marketplace\n        uint256 artistRoyalty;\n        uint256 ownerAmount;\n        if (garment.owner == garment.artist) {\n            // L'owner  anche l'artista, l'artista riceve il prezzo intero\n            artistRoyalty = 0;\n            ownerAmount = garment.price;\n        } else {\n            // L'owner non  l'artista, l'artista riceve il 10% del prezzo e l'owner il resto\n            artistRoyalty = (garment.price * artistRoyaltyPercentage) / 100;\n            ownerAmount = garment.price - artistRoyalty;\n        }\n\n        // Effettua i pagamenti\n        payTo(garment.owner, ownerAmount); // Pagamento all'owner\n        payTo(garment.artist, artistRoyalty); // Pagamento della commissione all'artista\n\n        // Trasferisco NFT\n        _transfer(garment.owner, msg.sender, tokenId);\n\n        //Aggiorno il nuovo proprietario del NFT\n        garment.owner = msg.sender;\n        minted[tokenId - 1] = garment;\n        \n        // Emetti l'evento di vendita\n        emit Sale(\n            minted[tokenId - 1].id,\n            msg.sender,\n            minted[tokenId - 1].artist,\n            minted[tokenId - 1].price,\n            minted[tokenId - 1].title,\n            minted[tokenId - 1].description,\n            minted[tokenId - 1].size,\n            minted[tokenId - 1].color,\n            minted[tokenId - 1].fabric,\n            minted[tokenId - 1].image,\n            minted[tokenId - 1].timestamp\n        );\n    }\n\n    // changes the price of an NFT\n    function changePrice(uint256 id, uint256 newPrice) external returns (bool) {\n        require(newPrice > 0 ether, \"Ether too low!\");\n        require(_isApprovedOrOwner(msg.sender, id), \"Operation Not Allowed!\");\n\n        minted[id - 1].price = newPrice;\n        return true;\n    }\n\n    // returns all minted NFTs\n    function getAllNFTs() external view returns (GarmentDetails[] memory) {\n        return minted;\n    }\n\n    // returns a specific NFT by token id\n    function getNFT(uint256 id) external view returns (GarmentDetails memory) {\n        return minted[id - 1];\n    }\n\n    function getGarmentsByOwner() external view returns (GarmentDetails[] memory) {\n        uint256[] memory tokenIds = getTokenIdsByOwner(msg.sender);\n        uint256 tokenCount = tokenIds.length;\n        \n        GarmentDetails[] memory garments = new GarmentDetails[](tokenCount);\n        uint256 count = 0;\n\n        for (uint256 i = 0; i < tokenCount; i++) {\n            uint256 tokenId = tokenIds[i];\n            GarmentDetails memory garment = minted[tokenId - 1];\n        \n            if (garment.owner == msg.sender) {\n                garments[count] = garment;\n                count++;\n            }\n        }\n        \n        return garments;\n    }\n\n    function getTokenIdsByOwner(address owner) private view returns (uint256[] memory) {\n        uint256 tokenCount = balanceOf(owner);\n        uint256[] memory tokenIds = new uint256[](tokenCount);\n        \n        for (uint256 i = 0; i < tokenCount; i++) {\n            tokenIds[i] = tokenOfOwnerByIndex(owner, i);\n        }\n        \n        return tokenIds;\n    }\n    \n}",
  "sourcePath": "/Users/gerardo/Documents/Universita/Magistrale/Secondo Anno/Sicurezza dei Dati/Progetto/contracts/Garment.sol",
  "compiler": {
    "name": "solc",
    "version": "0.8.17+commit.8df45f5f.Emscripten.clang"
  },
  "schemaVersion": "3.4.14",
  "updatedAt": "2023-07-02T15:20:22.245Z",
  "networkType": "ethereum",
  "devdoc": {
    "kind": "dev",
    "methods": {
      "approve(address,uint256)": {
        "details": "See {IERC721-approve}."
      },
      "balanceOf(address)": {
        "details": "See {IERC721-balanceOf}."
      },
      "getApproved(uint256)": {
        "details": "See {IERC721-getApproved}."
      },
      "isApprovedForAll(address,address)": {
        "details": "See {IERC721-isApprovedForAll}."
      },
      "name()": {
        "details": "See {IERC721Metadata-name}."
      },
      "owner()": {
        "details": "Returns the address of the current owner."
      },
      "ownerOf(uint256)": {
        "details": "See {IERC721-ownerOf}."
      },
      "renounceOwnership()": {
        "details": "Leaves the contract without owner. It will not be possible to call `onlyOwner` functions. Can only be called by the current owner. NOTE: Renouncing ownership will leave the contract without an owner, thereby disabling any functionality that is only available to the owner."
      },
      "safeTransferFrom(address,address,uint256)": {
        "details": "See {IERC721-safeTransferFrom}."
      },
      "safeTransferFrom(address,address,uint256,bytes)": {
        "details": "See {IERC721-safeTransferFrom}."
      },
      "setApprovalForAll(address,bool)": {
        "details": "See {IERC721-setApprovalForAll}."
      },
      "supportsInterface(bytes4)": {
        "details": "See {IERC165-supportsInterface}."
      },
      "symbol()": {
        "details": "See {IERC721Metadata-symbol}."
      },
      "tokenByIndex(uint256)": {
        "details": "See {IERC721Enumerable-tokenByIndex}."
      },
      "tokenOfOwnerByIndex(address,uint256)": {
        "details": "See {IERC721Enumerable-tokenOfOwnerByIndex}."
      },
      "tokenURI(uint256)": {
        "details": "See {IERC721Metadata-tokenURI}."
      },
      "totalSupply()": {
        "details": "See {IERC721Enumerable-totalSupply}."
      },
      "transferFrom(address,address,uint256)": {
        "details": "See {IERC721-transferFrom}."
      },
      "transferOwnership(address)": {
        "details": "Transfers ownership of the contract to a new account (`newOwner`). Can only be called by the current owner."
      }
    },
    "version": 1
  },
  "userdoc": {
    "kind": "user",
    "methods": {},
    "version": 1
  }
}