{
  "contractName": "Garment",
  "abi": [
    {
      "inputs": [
        {
          "internalType": "string",
          "name": "_name",
          "type": "string"
        },
        {
          "internalType": "string",
          "name": "_symbol",
          "type": "string"
        }
      ],
      "stateMutability": "nonpayable",
      "type": "constructor"
    },
    {
      "anonymous": false,
      "inputs": [
        {
          "indexed": true,
          "internalType": "address",
          "name": "owner",
          "type": "address"
        },
        {
          "indexed": true,
          "internalType": "address",
          "name": "approved",
          "type": "address"
        },
        {
          "indexed": true,
          "internalType": "uint256",
          "name": "tokenId",
          "type": "uint256"
        }
      ],
      "name": "Approval",
      "type": "event"
    },
    {
      "anonymous": false,
      "inputs": [
        {
          "indexed": true,
          "internalType": "address",
          "name": "owner",
          "type": "address"
        },
        {
          "indexed": true,
          "internalType": "address",
          "name": "operator",
          "type": "address"
        },
        {
          "indexed": false,
          "internalType": "bool",
          "name": "approved",
          "type": "bool"
        }
      ],
      "name": "ApprovalForAll",
      "type": "event"
    },
    {
      "anonymous": false,
      "inputs": [
        {
          "indexed": false,
          "internalType": "string",
          "name": "message",
          "type": "string"
        }
      ],
      "name": "Log",
      "type": "event"
    },
    {
      "anonymous": false,
      "inputs": [
        {
          "indexed": true,
          "internalType": "address",
          "name": "previousOwner",
          "type": "address"
        },
        {
          "indexed": true,
          "internalType": "address",
          "name": "newOwner",
          "type": "address"
        }
      ],
      "name": "OwnershipTransferred",
      "type": "event"
    },
    {
      "anonymous": false,
      "inputs": [
        {
          "indexed": false,
          "internalType": "uint256",
          "name": "id",
          "type": "uint256"
        },
        {
          "indexed": false,
          "internalType": "address",
          "name": "owner",
          "type": "address"
        },
        {
          "indexed": false,
          "internalType": "address",
          "name": "artist",
          "type": "address"
        },
        {
          "indexed": false,
          "internalType": "uint256",
          "name": "price",
          "type": "uint256"
        },
        {
          "indexed": false,
          "internalType": "string",
          "name": "title",
          "type": "string"
        },
        {
          "indexed": false,
          "internalType": "string",
          "name": "description",
          "type": "string"
        },
        {
          "indexed": false,
          "internalType": "string",
          "name": "size",
          "type": "string"
        },
        {
          "indexed": false,
          "internalType": "string",
          "name": "color",
          "type": "string"
        },
        {
          "indexed": false,
          "internalType": "string",
          "name": "fabric",
          "type": "string"
        },
        {
          "indexed": false,
          "internalType": "string",
          "name": "image",
          "type": "string"
        },
        {
          "indexed": false,
          "internalType": "uint256",
          "name": "timestamp",
          "type": "uint256"
        }
      ],
      "name": "Sale",
      "type": "event"
    },
    {
      "anonymous": false,
      "inputs": [
        {
          "indexed": true,
          "internalType": "address",
          "name": "from",
          "type": "address"
        },
        {
          "indexed": true,
          "internalType": "address",
          "name": "to",
          "type": "address"
        },
        {
          "indexed": true,
          "internalType": "uint256",
          "name": "tokenId",
          "type": "uint256"
        }
      ],
      "name": "Transfer",
      "type": "event"
    },
    {
      "inputs": [
        {
          "internalType": "address",
          "name": "to",
          "type": "address"
        },
        {
          "internalType": "uint256",
          "name": "tokenId",
          "type": "uint256"
        }
      ],
      "name": "approve",
      "outputs": [],
      "stateMutability": "nonpayable",
      "type": "function"
    },
    {
      "inputs": [],
      "name": "artistRoyaltyPercentage",
      "outputs": [
        {
          "internalType": "uint256",
          "name": "",
          "type": "uint256"
        }
      ],
      "stateMutability": "view",
      "type": "function"
    },
    {
      "inputs": [
        {
          "internalType": "address",
          "name": "owner",
          "type": "address"
        }
      ],
      "name": "balanceOf",
      "outputs": [
        {
          "internalType": "uint256",
          "name": "",
          "type": "uint256"
        }
      ],
      "stateMutability": "view",
      "type": "function"
    },
    {
      "inputs": [],
      "name": "cost",
      "outputs": [
        {
          "internalType": "uint256",
          "name": "",
          "type": "uint256"
        }
      ],
      "stateMutability": "view",
      "type": "function"
    },
    {
      "inputs": [
        {
          "internalType": "uint256",
          "name": "tokenId",
          "type": "uint256"
        }
      ],
      "name": "getApproved",
      "outputs": [
        {
          "internalType": "address",
          "name": "",
          "type": "address"
        }
      ],
      "stateMutability": "view",
      "type": "function"
    },
    {
      "inputs": [
        {
          "internalType": "address",
          "name": "owner",
          "type": "address"
        },
        {
          "internalType": "address",
          "name": "operator",
          "type": "address"
        }
      ],
      "name": "isApprovedForAll",
      "outputs": [
        {
          "internalType": "bool",
          "name": "",
          "type": "bool"
        }
      ],
      "stateMutability": "view",
      "type": "function"
    },
    {
      "inputs": [],
      "name": "name",
      "outputs": [
        {
          "internalType": "string",
          "name": "",
          "type": "string"
        }
      ],
      "stateMutability": "view",
      "type": "function"
    },
    {
      "inputs": [],
      "name": "owner",
      "outputs": [
        {
          "internalType": "address",
          "name": "",
          "type": "address"
        }
      ],
      "stateMutability": "view",
      "type": "function"
    },
    {
      "inputs": [
        {
          "internalType": "uint256",
          "name": "tokenId",
          "type": "uint256"
        }
      ],
      "name": "ownerOf",
      "outputs": [
        {
          "internalType": "address",
          "name": "",
          "type": "address"
        }
      ],
      "stateMutability": "view",
      "type": "function"
    },
    {
      "inputs": [],
      "name": "renounceOwnership",
      "outputs": [],
      "stateMutability": "nonpayable",
      "type": "function"
    },
    {
      "inputs": [
        {
          "internalType": "address",
          "name": "from",
          "type": "address"
        },
        {
          "internalType": "address",
          "name": "to",
          "type": "address"
        },
        {
          "internalType": "uint256",
          "name": "tokenId",
          "type": "uint256"
        }
      ],
      "name": "safeTransferFrom",
      "outputs": [],
      "stateMutability": "nonpayable",
      "type": "function"
    },
    {
      "inputs": [
        {
          "internalType": "address",
          "name": "from",
          "type": "address"
        },
        {
          "internalType": "address",
          "name": "to",
          "type": "address"
        },
        {
          "internalType": "uint256",
          "name": "tokenId",
          "type": "uint256"
        },
        {
          "internalType": "bytes",
          "name": "data",
          "type": "bytes"
        }
      ],
      "name": "safeTransferFrom",
      "outputs": [],
      "stateMutability": "nonpayable",
      "type": "function"
    },
    {
      "inputs": [
        {
          "internalType": "address",
          "name": "operator",
          "type": "address"
        },
        {
          "internalType": "bool",
          "name": "approved",
          "type": "bool"
        }
      ],
      "name": "setApprovalForAll",
      "outputs": [],
      "stateMutability": "nonpayable",
      "type": "function"
    },
    {
      "inputs": [
        {
          "internalType": "bytes4",
          "name": "interfaceId",
          "type": "bytes4"
        }
      ],
      "name": "supportsInterface",
      "outputs": [
        {
          "internalType": "bool",
          "name": "",
          "type": "bool"
        }
      ],
      "stateMutability": "view",
      "type": "function"
    },
    {
      "inputs": [],
      "name": "symbol",
      "outputs": [
        {
          "internalType": "string",
          "name": "",
          "type": "string"
        }
      ],
      "stateMutability": "view",
      "type": "function"
    },
    {
      "inputs": [
        {
          "internalType": "uint256",
          "name": "index",
          "type": "uint256"
        }
      ],
      "name": "tokenByIndex",
      "outputs": [
        {
          "internalType": "uint256",
          "name": "",
          "type": "uint256"
        }
      ],
      "stateMutability": "view",
      "type": "function"
    },
    {
      "inputs": [
        {
          "internalType": "address",
          "name": "owner",
          "type": "address"
        },
        {
          "internalType": "uint256",
          "name": "index",
          "type": "uint256"
        }
      ],
      "name": "tokenOfOwnerByIndex",
      "outputs": [
        {
          "internalType": "uint256",
          "name": "",
          "type": "uint256"
        }
      ],
      "stateMutability": "view",
      "type": "function"
    },
    {
      "inputs": [
        {
          "internalType": "uint256",
          "name": "tokenId",
          "type": "uint256"
        }
      ],
      "name": "tokenURI",
      "outputs": [
        {
          "internalType": "string",
          "name": "",
          "type": "string"
        }
      ],
      "stateMutability": "view",
      "type": "function"
    },
    {
      "inputs": [],
      "name": "totalSupply",
      "outputs": [
        {
          "internalType": "uint256",
          "name": "",
          "type": "uint256"
        }
      ],
      "stateMutability": "view",
      "type": "function"
    },
    {
      "inputs": [
        {
          "internalType": "address",
          "name": "from",
          "type": "address"
        },
        {
          "internalType": "address",
          "name": "to",
          "type": "address"
        },
        {
          "internalType": "uint256",
          "name": "tokenId",
          "type": "uint256"
        }
      ],
      "name": "transferFrom",
      "outputs": [],
      "stateMutability": "nonpayable",
      "type": "function"
    },
    {
      "inputs": [
        {
          "internalType": "address",
          "name": "newOwner",
          "type": "address"
        }
      ],
      "name": "transferOwnership",
      "outputs": [],
      "stateMutability": "nonpayable",
      "type": "function"
    },
    {
      "inputs": [
        {
          "internalType": "uint256",
          "name": "price",
          "type": "uint256"
        },
        {
          "internalType": "string",
          "name": "title",
          "type": "string"
        },
        {
          "internalType": "string",
          "name": "description",
          "type": "string"
        },
        {
          "internalType": "string",
          "name": "size",
          "type": "string"
        },
        {
          "internalType": "string",
          "name": "color",
          "type": "string"
        },
        {
          "internalType": "string",
          "name": "fabric",
          "type": "string"
        },
        {
          "internalType": "string",
          "name": "image",
          "type": "string"
        }
      ],
      "name": "createGarment",
      "outputs": [],
      "stateMutability": "payable",
      "type": "function"
    },
    {
      "inputs": [
        {
          "internalType": "uint256",
          "name": "tokenId",
          "type": "uint256"
        }
      ],
      "name": "purchaseGarment",
      "outputs": [],
      "stateMutability": "payable",
      "type": "function"
    },
    {
      "inputs": [
        {
          "internalType": "uint256",
          "name": "id",
          "type": "uint256"
        },
        {
          "internalType": "uint256",
          "name": "newPrice",
          "type": "uint256"
        }
      ],
      "name": "changePrice",
      "outputs": [
        {
          "internalType": "bool",
          "name": "",
          "type": "bool"
        }
      ],
      "stateMutability": "nonpayable",
      "type": "function"
    },
    {
      "inputs": [],
      "name": "getAllNFTs",
      "outputs": [
        {
          "components": [
            {
              "internalType": "uint256",
              "name": "id",
              "type": "uint256"
            },
            {
              "internalType": "address",
              "name": "owner",
              "type": "address"
            },
            {
              "internalType": "address",
              "name": "artist",
              "type": "address"
            },
            {
              "internalType": "uint256",
              "name": "price",
              "type": "uint256"
            },
            {
              "internalType": "string",
              "name": "title",
              "type": "string"
            },
            {
              "internalType": "string",
              "name": "description",
              "type": "string"
            },
            {
              "internalType": "string",
              "name": "size",
              "type": "string"
            },
            {
              "internalType": "string",
              "name": "color",
              "type": "string"
            },
            {
              "internalType": "string",
              "name": "fabric",
              "type": "string"
            },
            {
              "internalType": "string",
              "name": "image",
              "type": "string"
            },
            {
              "internalType": "uint256",
              "name": "timestamp",
              "type": "uint256"
            }
          ],
          "internalType": "struct Garment.GarmentDetails[]",
          "name": "",
          "type": "tuple[]"
        }
      ],
      "stateMutability": "view",
      "type": "function"
    },
    {
      "inputs": [
        {
          "internalType": "uint256",
          "name": "id",
          "type": "uint256"
        }
      ],
      "name": "getNFT",
      "outputs": [
        {
          "components": [
            {
              "internalType": "uint256",
              "name": "id",
              "type": "uint256"
            },
            {
              "internalType": "address",
              "name": "owner",
              "type": "address"
            },
            {
              "internalType": "address",
              "name": "artist",
              "type": "address"
            },
            {
              "internalType": "uint256",
              "name": "price",
              "type": "uint256"
            },
            {
              "internalType": "string",
              "name": "title",
              "type": "string"
            },
            {
              "internalType": "string",
              "name": "description",
              "type": "string"
            },
            {
              "internalType": "string",
              "name": "size",
              "type": "string"
            },
            {
              "internalType": "string",
              "name": "color",
              "type": "string"
            },
            {
              "internalType": "string",
              "name": "fabric",
              "type": "string"
            },
            {
              "internalType": "string",
              "name": "image",
              "type": "string"
            },
            {
              "internalType": "uint256",
              "name": "timestamp",
              "type": "uint256"
            }
          ],
          "internalType": "struct Garment.GarmentDetails",
          "name": "",
          "type": "tuple"
        }
      ],
      "stateMutability": "view",
      "type": "function"
    },
    {
      "inputs": [],
      "name": "getGarmentsByOwner",
      "outputs": [
        {
          "components": [
            {
              "internalType": "uint256",
              "name": "id",
              "type": "uint256"
            },
            {
              "internalType": "address",
              "name": "owner",
              "type": "address"
            },
            {
              "internalType": "address",
              "name": "artist",
              "type": "address"
            },
            {
              "internalType": "uint256",
              "name": "price",
              "type": "uint256"
            },
            {
              "internalType": "string",
              "name": "title",
              "type": "string"
            },
            {
              "internalType": "string",
              "name": "description",
              "type": "string"
            },
            {
              "internalType": "string",
              "name": "size",
              "type": "string"
            },
            {
              "internalType": "string",
              "name": "color",
              "type": "string"
            },
            {
              "internalType": "string",
              "name": "fabric",
              "type": "string"
            },
            {
              "internalType": "string",
              "name": "image",
              "type": "string"
            },
            {
              "internalType": "uint256",
              "name": "timestamp",
              "type": "uint256"
            }
          ],
          "internalType": "struct Garment.GarmentDetails[]",
          "name": "",
          "type": "tuple[]"
        }
      ],
      "stateMutability": "view",
      "type": "function"
    }
  ],
  "bytecode": "0x608060405234620003735762002c81803803806200001d8162000378565b9283398101604082820312620003735781516001600160401b0392908381116200037357826200004f9183016200039e565b906020928382015185811162000373576200006b92016200039e565b9281518181116200035d576000938454916001948584811c9416801562000352575b838510146200033e578190601f94858111620002eb575b508390858311600114620002875788926200027b575b5050600019600383901b1c191690851b1785555b8551928311620002675783548481811c911680156200025c575b82821014620002485782811162000200575b50809183116001146200019a57508394829394926200018e575b5050600019600383901b1c191690821b1790555b600a8054336001600160a01b031982168117909255604051926001600160a01b03909116907f8be0079c531659141344cd1fd0a4f28419497f9722a3daafe3b4186f6b6457e09080a3662386f26fc10000600c55600a600d556128709081620004118239f35b01519050388062000114565b90601f198316958486528286209286905b888210620001e85750508385969710620001ce575b505050811b01905562000128565b015160001960f88460031b161c19169055388080620001c0565b808785968294968601518155019501930190620001ab565b8486528186208380860160051c8201928487106200023e575b0160051c019085905b82811062000232575050620000fa565b87815501859062000222565b9250819262000219565b634e487b7160e01b86526022600452602486fd5b90607f1690620000e8565b634e487b7160e01b85526041600452602485fd5b015190503880620000ba565b8880528489208894509190601f1984168a5b87828210620002d45750508411620002ba575b505050811b018555620000ce565b015160001960f88460031b161c19169055388080620002ac565b8385015186558b9790950194938401930162000299565b9091508780528388208580850160051c82019286861062000334575b918991869594930160051c01915b82811062000325575050620000a4565b8a815585945089910162000315565b9250819262000307565b634e487b7160e01b87526022600452602487fd5b93607f16936200008d565b634e487b7160e01b600052604160045260246000fd5b600080fd5b6040519190601f01601f191682016001600160401b038111838210176200035d57604052565b919080601f84011215620003735782516001600160401b0381116200035d57602090620003d4601f8201601f1916830162000378565b92818452828287010111620003735760005b818110620003fc57508260009394955001015290565b8581018301518482018401528201620003e656fe608080604052600436101561001357600080fd5b60003560e01c90816301ffc9a71461194f5750806306fdde03146118ac578063081812fc1461188e578063095ea7b31461171457806313faede6146116f657806318160ddd146116d857806323b872dd146116b45780632f745c591461168d57806342842e0e1461165a5780634f6ccce7146115c9578063576f7ea71461157d5780635a7749bc146114265780635c06d0e0146114085780636352211e146113d857806363a0917114610a3157806370a0823114610a06578063715018a6146109a95780638da5cb5b1461098057806395d89b41146108bb57806399c1348d14610596578063a22cb465146104c8578063b3de019c146103ed578063b88d4fde14610366578063c87b56dd146102f9578063e0391b0914610266578063e985e9c5146102105763f2fde38b1461014857600080fd5b3461020b57602036600319011261020b57610161611a14565b610169611c60565b6001600160a01b039081169081156101b757600a80546001600160a01b031981168417909155167f8be0079c531659141344cd1fd0a4f28419497f9722a3daafe3b4186f6b6457e0600080a3005b60405162461bcd60e51b815260206004820152602660248201527f4f776e61626c653a206e6577206f776e657220697320746865207a65726f206160448201526564647265737360d01b6064820152608490fd5b600080fd5b3461020b57604036600319011261020b57610229611a14565b610231611a2a565b9060018060a01b03809116600052600560205260406000209116600052602052602060ff604060002054166040519015158152f35b3461020b57600036600319011261020b57600e54610283816126a9565b6102906040519182611bcf565b818152600e60009081527fbb7b4a454dc3493923482f07822329ed19e8244eff582cc204f8554c3620c3fd929060208084015b8383106102dc57604051806102d88782611b36565b0390f35b600b826001926102eb896126c0565b8152019601920191946102c3565b3461020b57602036600319011261020b57600435600090815260026020526040902054610330906001600160a01b03161515611d2f565b600060405161033e81611bb4565b526102d860405161034e81611bb4565b600081526040519182916020835260208301906119d4565b3461020b57608036600319011261020b5761037f611a14565b610387611a2a565b90606435906044356001600160401b03831161020b573660238401121561020b576103eb936103c36103e6943690602481600401359101611c0b565b926103d66103d18433611f80565b611ea7565b6103e1838383612048565b61239c565b611f5c565b005b3461020b57604036600319011261020b576024356004358115610492576104148133611f80565b1561045457600019810190811161043e576104306003916124e9565b500155602060405160018152f35b634e487b7160e01b600052601160045260246000fd5b60405162461bcd60e51b81526020600482015260166024820152754f7065726174696f6e204e6f7420416c6c6f7765642160501b6044820152606490fd5b60405162461bcd60e51b815260206004820152600e60248201526d457468657220746f6f206c6f772160901b6044820152606490fd5b3461020b57604036600319011261020b576104e1611a14565b6024359081151580920361020b576001600160a01b03169033821461055557336000526005602052604060002082600052602052604060002060ff1981541660ff83161790556040519081527f17307eab39ab6107e8899845ad3d59bd9653f200f220920489ca2b5937696c3160203392a3005b60405162461bcd60e51b815260206004820152601960248201527822a9219b99189d1030b8383937bb32903a379031b0b63632b960391b6044820152606490fd5b602036600319011261020b576004356000818152600260205260409020546001600160a01b03161561087f5760001981019080821161043e576105d8826124e9565b506003810180549283341061083a5760646105f5600d54866124d6565b049261062f600182019261061360018060a01b0397888654166125a8565b6106246002840196888854166125a8565b868454163390612048565b81546001600160a01b0319908116331783559261064b876124e9565b95909561082457828603610787575b8787610665826124e9565b505490610671836124e9565b50600201541691610681816124e9565b506003015490610690816124e9565b5061069a826124e9565b506106a4836124e9565b506106ae846124e9565b50916106b9856124e9565b50936106c4866124e9565b50956106cf906124e9565b50600a015496604051998a998a523360208b015260408a015260608901526101608060808a01528801906004019061070691611dd3565b87810360a089015261071a91600501611dd3565b86810360c088015261072e91600601611dd3565b85810360e087015261074291600701611dd3565b84810361010086015261075791600801611dd3565b83810361012085015261076c91600901611dd3565b906101408301520360008051602061281b83398151915291a1005b600a948594845488558860018901915416828254161790558760028801925416908254161790555460038501556107c460048201600486016125cb565b6107d460058201600586016125cb565b6107e460068201600686016125cb565b6107f460078201600786016125cb565b61080460088201600886016125cb565b61081460098201600986016125cb565b015491015582808080808061065a565b634e487b7160e01b600052600060045260246000fd5b60405162461bcd60e51b815260206004820152601b60248201527f457468657220746f6f206c6f7720666f722070757263686173652100000000006044820152606490fd5b60405162461bcd60e51b8152602060048201526014602482015273151bdad95b88191bd95cc81b9bdd08195e1a5cdd60621b6044820152606490fd5b3461020b57600036600319011261020b57604051600090600180546108df81611d99565b80845290828116908115610958575060011461091a575b6102d88361090681870382611bcf565b6040519182916020835260208301906119d4565b92508060005260209283600020916000925b82841061094557505050810190910190610906816108f6565b805485850187015292850192810161092c565b6102d8955061090693506020915091849260ff191682840152151560051b82010193506108f6565b3461020b57600036600319011261020b57600a546040516001600160a01b039091168152602090f35b3461020b57600036600319011261020b576109c2611c60565b600a80546001600160a01b031981169091556000906001600160a01b03167f8be0079c531659141344cd1fd0a4f28419497f9722a3daafe3b4186f6b6457e08280a3005b3461020b57602036600319011261020b576020610a29610a24611a14565b611cb8565b604051908152f35b60e036600319011261020b576024356001600160401b03811161020b57610a5c903690600401611c42565b6044356001600160401b03811161020b57610a7b903690600401611c42565b906064356001600160401b03811161020b57610a9b903690600401611c42565b6084356001600160401b03811161020b57610aba903690600401611c42565b60a4356001600160401b03811161020b57610ad9903690600401611c42565b60c4356001600160401b03811161020b57610af8903690600401611c42565b91600c543410611393576064610b10600d54346124d6565b0480340334811161043e57610b28610b3992336125a8565b600a546001600160a01b03166125a8565b6001600b54019384600b55604051610b5081611bb4565b60008152331561134f57600086815260026020526040902054610b7f906001600160a01b031615155b1561255c565b60085486600052600960205280604060002055600160401b8110156110c857610c8b91610bd488610bb98460016103e696016008556124a5565b90919082549060031b600019811b9283911b16911916179055565b610bdd33611cb8565b33600052600660205260406000208160005260205288604060002055886000526007602052604060002055610c2a610b7989600052600260205260018060a01b0360406000205416151590565b33600052600360205260406000206001815401905587600052600260205260406000203360018060a01b0319825416179055873360007fddf252ad1be2c89b69c2b068fc378daa952ba7f163c4a11628f55a4df523b3ef8180a487336122a1565b60405196610c9888611b98565b85885233602089015233604089015260043560608901528660808901528060a08901528160c08901528260e0890152836101008901528461012089015242610140890152600e54600160401b8110156110c857806001610cfb9201600e556124e9565b9890986108245780518955602081015160018a0180546001600160a01b039283166001600160a01b031991821617909155604083015160028c018054919093169116179055606081015160038a015560808101518051906001600160401b0382116110c8578190610d7c828d6004610d7581830154611d99565b9101612508565b602090601f83116001146112dd576000926112d2575b50508160011b916000199060031b1c19161760048a01555b60a08101518051906001600160401b0382116110c8578190610dd5828d6005610d7581830154611d99565b602090601f831160011461126057600092611255575b50508160011b916000199060031b1c19161760058a01555b60c08101518051906001600160401b0382116110c8578190610e2e828d6006610d7581830154611d99565b602090601f83116001146111e3576000926111d8575b50508160011b916000199060031b1c19161760068a01555b60e08101518051906001600160401b0382116110c8578190610e87828d6007610d7581830154611d99565b602090601f83116001146111665760009261115b575b50508160011b916000199060031b1c19161760078a01555b6101008101518051906001600160401b0382116110c8578190610ee1828d6008610d7581830154611d99565b602090601f83116001146110e9576000926110de575b50508160011b916000199060031b1c19161760088a01555b6101208101518051906001600160401b0382116110c857610f39828c6009610d7581830154611d99565b602090601f831160011461102e57610ff99460008051602061281b8339815191529c600a6101406110089a9787610feb986110179f9e9c98610fdd98600092611023575b50508160011b916000199060031b1c19161760098501555b0151910155610fcf6040519c8d9c8d528c6020339101528c6040339101528c606060043591015260808d61016091829101528d01906119d4565b908b820360a08d01526119d4565b9089820360c08b01526119d4565b9087820360e08901526119d4565b908582036101008701526119d4565b908382036101208501526119d4565b426101408301520390a1005b015190503880610f7d565b9060098c0160005260206000209160005b601f19851681106110b057509460008051602061281b8339815191529c600a6101406110089a976001886110179f9e9c98610fdd98610ff99d610feb9c601f19811610611097575b505050811b016009850155610f95565b015160001960f88460031b161c19169055388080611087565b9192602060018192868501518155019401920161103f565b634e487b7160e01b600052604160045260246000fd5b015190508b80610ef7565b925060088c016000526020600020906000935b601f1984168510611140576001945083601f19811610611127575b505050811b0160088a0155610f0f565b015160001960f88460031b161c191690558b8080611117565b818101518355602094850194600190930192909101906110fc565b015190508b80610e9d565b925060078c016000526020600020906000935b601f19841685106111bd576001945083601f198116106111a4575b505050811b0160078a0155610eb5565b015160001960f88460031b161c191690558b8080611194565b81810151835560209485019460019093019290910190611179565b015190508b80610e44565b925060068c016000526020600020906000935b601f198416851061123a576001945083601f19811610611221575b505050811b0160068a0155610e5c565b015160001960f88460031b161c191690558b8080611211565b818101518355602094850194600190930192909101906111f6565b015190508b80610deb565b925060058c016000526020600020906000935b601f19841685106112b7576001945083601f1981161061129e575b505050811b0160058a0155610e03565b015160001960f88460031b161c191690558b808061128e565b81810151835560209485019460019093019290910190611273565b015190508b80610d92565b925060048c016000526020600020906000935b601f1984168510611334576001945083601f1981161061131b575b505050811b0160048a0155610daa565b015160001960f88460031b161c191690558b808061130b565b818101518355602094850194600190930192909101906112f0565b606460405162461bcd60e51b815260206004820152602060248201527f4552433732313a206d696e7420746f20746865207a65726f20616464726573736044820152fd5b60405162461bcd60e51b815260206004820152601a60248201527f457468657220746f6f206c6f7720666f72206d696e74696e67210000000000006044820152606490fd5b3461020b57602036600319011261020b5760206113f6600435611d76565b6040516001600160a01b039091168152f35b3461020b57600036600319011261020b576020600d54604051908152f35b3461020b57600036600319011261020b5761144033611cb8565b611449816126a9565b6114566040519182611bcf565b818152601f199182611467826126a9565b0190602091368385013760005b81811061155a575050815191611489836126a9565b936114976040519586611bcf565b8385526114a3846126a9565b018260005b8281106115445750505060009060005b8481106114cd57604051806102d88882611b36565b6114d78183612806565b51600019810190811161043e576114f06114f6916124e9565b506126c0565b808501516001600160a01b03163314611519575b50611514906127f7565b6114b8565b8361153d9161152c61151494968a612806565b526115378189612806565b506127f7565b929061150a565b61154c6127a5565b8282890101520183906114a8565b806115686115789233612417565b6115728287612806565b526127f7565b611474565b3461020b57602036600319011261020b576004356115996127a5565b50600019810190811161043e576115b56114f06102d8926124e9565b604051918291602083526020830190611a75565b3461020b57602036600319011261020b57600435600854811015611600576115f26020916124a5565b90546040519160031b1c8152f35b60405162461bcd60e51b815260206004820152602c60248201527f455243373231456e756d657261626c653a20676c6f62616c20696e646578206f60448201526b7574206f6620626f756e647360a01b6064820152608490fd5b3461020b576103eb6103e661166e36611a40565b906040519261167c84611bb4565b600084526103d66103d18433611f80565b3461020b57604036600319011261020b576020610a296116ab611a14565b60243590612417565b3461020b576103eb6116c536611a40565b916116d36103d18433611f80565b612048565b3461020b57600036600319011261020b576020600854604051908152f35b3461020b57600036600319011261020b576020600c54604051908152f35b3461020b57604036600319011261020b5761172d611a14565b602435906001600160a01b03808061174485611d76565b1692169180831461183f5780331490811561181a575b50156117af57600083815260046020526040902080546001600160a01b0319168317905561178783611d76565b167f8c5be1e5ebec7d5bd14f71427d1e84f3dd0314c0f7b2291e5b200ac8c7c3b925600080a4005b60405162461bcd60e51b815260206004820152603d60248201527f4552433732313a20617070726f76652063616c6c6572206973206e6f7420746f60448201527f6b656e206f776e6572206f7220617070726f76656420666f7220616c6c0000006064820152608490fd5b9050600052600560205260406000203360005260205260ff604060002054168461175a565b60405162461bcd60e51b815260206004820152602160248201527f4552433732313a20617070726f76616c20746f2063757272656e74206f776e656044820152603960f91b6064820152608490fd5b3461020b57602036600319011261020b5760206113f6600435611e69565b3461020b57600036600319011261020b576040516000906000546118cf81611d99565b80835260019180831690811561095857506001146118f7576102d88361090681870382611bcf565b600080805260209450917f290decd9548b62a8d60345a988386fc84ba6bc95484008f6362f93160ef3e5635b82841061193c57505050810190910190610906816108f6565b8054858501870152928501928101611923565b3461020b57602036600319011261020b576004359063ffffffff60e01b821680920361020b5760209163780e9d6360e01b8114908115611991575b5015158152f35b6380ac58cd60e01b8114915081156119c3575b81156119b2575b508361198a565b6301ffc9a760e01b149050836119ab565b635b5e139f60e01b811491506119a4565b919082519283825260005b848110611a00575050826000602080949584010152601f8019910116010190565b6020818301810151848301820152016119df565b600435906001600160a01b038216820361020b57565b602435906001600160a01b038216820361020b57565b606090600319011261020b576001600160a01b0390600435828116810361020b5791602435908116810361020b579060443590565b908151815260018060a01b03806020840151166020830152604083015116604082015260608201516060820152611b28611b14611b00611aee611adc611aca60808801516101608060808a01528801906119d4565b60a088015187820360a08901526119d4565b60c087015186820360c08801526119d4565b60e086015185820360e08701526119d4565b6101008086015190858303908601526119d4565b6101208085015190848303908501526119d4565b916101408091015191015290565b602080820190808352835180925260408301928160408460051b8301019501936000915b848310611b6a5750505050505090565b9091929394958480611b88600193603f198682030187528a51611a75565b9801930193019194939290611b5a565b61016081019081106001600160401b038211176110c857604052565b602081019081106001600160401b038211176110c857604052565b90601f801991011681019081106001600160401b038211176110c857604052565b6001600160401b0381116110c857601f01601f191660200190565b929192611c1782611bf0565b91611c256040519384611bcf565b82948184528183011161020b578281602093846000960137010152565b9080601f8301121561020b57816020611c5d93359101611c0b565b90565b600a546001600160a01b03163303611c7457565b606460405162461bcd60e51b815260206004820152602060248201527f4f776e61626c653a2063616c6c6572206973206e6f7420746865206f776e65726044820152fd5b6001600160a01b03168015611cd857600052600360205260406000205490565b60405162461bcd60e51b815260206004820152602960248201527f4552433732313a2061646472657373207a65726f206973206e6f7420612076616044820152683634b21037bbb732b960b91b6064820152608490fd5b15611d3657565b60405162461bcd60e51b8152602060048201526018602482015277115490cdcc8c4e881a5b9d985b1a59081d1bdad95b88125160421b6044820152606490fd5b6000908152600260205260409020546001600160a01b0316611c5d811515611d2f565b90600182811c92168015611dc9575b6020831014611db357565b634e487b7160e01b600052602260045260246000fd5b91607f1691611da8565b9060009291805491611de483611d99565b918282526001938481169081600014611e465750600114611e06575b50505050565b90919394506000526020928360002092846000945b838610611e32575050505001019038808080611e00565b805485870183015294019385908201611e1b565b9294505050602093945060ff191683830152151560051b01019038808080611e00565b600081815260026020526040902054611e8c906001600160a01b03161515611d2f565b6000908152600460205260409020546001600160a01b031690565b15611eae57565b60405162461bcd60e51b815260206004820152602d60248201527f4552433732313a2063616c6c6572206973206e6f7420746f6b656e206f776e6560448201526c1c881bdc88185c1c1c9bdd9959609a1b6064820152608490fd5b60809060208152603260208201527f4552433732313a207472616e7366657220746f206e6f6e20455243373231526560408201527131b2b4bb32b91034b6b83632b6b2b73a32b960711b60608201520190565b15611f6357565b60405162461bcd60e51b815280611f7c60048201611f09565b0390fd5b906001600160a01b038080611f9484611d76565b16931691838314938415611fc7575b508315611fb1575b50505090565b611fbd91929350611e69565b1614388080611fab565b909350600052600560205260406000208260005260205260ff604060002054169238611fa3565b15611ff557565b60405162461bcd60e51b815260206004820152602560248201527f4552433732313a207472616e736665722066726f6d20696e636f72726563742060448201526437bbb732b960d91b6064820152608490fd5b61206c9161205584611d76565b6001600160a01b0393848416939185168414611fee565b8382169384156122205783918261217d575060085460008781526009602052604090208190559150600160401b8210156110c8576120d2926120b987610bb98560018997016008556124a5565b82860361214a575b506120cb86611d76565b1614611fee565b7fddf252ad1be2c89b69c2b068fc378daa952ba7f163c4a11628f55a4df523b3ef600084815260046020526040812060018060a01b03199081815416905583825260036020526040822060001981540190558482526040822060018154019055858252600260205284604083209182541617905580a4565b61215390611cb8565b604060008781526006602052818120838252602052888282205588815260076020522055386120c1565b85830361218f575b506120d2926120b9565b61219a919250611cb8565b60001981019190821161043e576120d292849260009088825260209060078252604091828420548281036121e9575b508a84528383812055868452600681528284209184525281205592612185565b87855260068252838520838652825283852054888652600683528486208287528352808587205585526007825283852055386121c9565b60405162461bcd60e51b8152602060048201526024808201527f4552433732313a207472616e7366657220746f20746865207a65726f206164646044820152637265737360e01b6064820152608490fd5b3d1561229c573d9061228282611bf0565b916122906040519384611bcf565b82523d6000602084013e565b606090565b9091600091803b15612393576122ec6020918493604051948580948193630a85bd0160e11b9a8b845233600485015284602485015260448401526080606484015260848301906119d4565b03926001600160a01b03165af190829082612344575b505061233657612310612271565b805190816123315760405162461bcd60e51b815280611f7c60048201611f09565b602001fd5b6001600160e01b0319161490565b909192506020813d821161238b575b8161236060209383611bcf565b810103126123875751906001600160e01b0319821682036123845750903880612302565b80fd5b5080fd5b3d9150612353565b50505050600190565b91926000929190813b1561240d576020916123f29185604051958680958194630a85bd0160e11b9b8c845233600485015260018060a01b03809516602485015260448401526080606484015260848301906119d4565b0393165af19082908261234457505061233657612310612271565b5050505050600190565b61242081611cb8565b82101561244c5760018060a01b0316600052600660205260406000209060005260205260406000205490565b60405162461bcd60e51b815260206004820152602b60248201527f455243373231456e756d657261626c653a206f776e657220696e646578206f7560448201526a74206f6620626f756e647360a81b6064820152608490fd5b6008548110156124c057600860005260206000200190600090565b634e487b7160e01b600052603260045260246000fd5b8181029291811591840414171561043e57565b600e548110156124c057600e600052600b602060002091020190600090565b90601f811161251657505050565b600091825260208220906020601f850160051c83019410612552575b601f0160051c01915b82811061254757505050565b81815560010161253b565b9092508290612532565b1561256357565b60405162461bcd60e51b815260206004820152601c60248201527f4552433732313a20746f6b656e20616c7265616479206d696e746564000000006044820152606490fd5b600080808094819460018060a01b03165af16125c2612271565b50156123845750565b908082146126a5576125dd8154611d99565b906001600160401b0382116110c8578190612602826125fc8654611d99565b86612508565b600090601f83116001146126395760009261262e575b50508160011b916000199060031b1c1916179055565b015490503880612618565b81526020808220858352818320935090601f1985169083905b82821061268c575050908460019594939210612673575b505050811b019055565b015460001960f88460031b161c19169055388080612669565b8495819295850154815560018091019601940190612652565b5050565b6001600160401b0381116110c85760051b60200190565b90604091610140600a8451926126d584611b98565b8054845260018101546001600160a01b0390811660208601526002820154168685015260038101546060850152855193958694612720816127198160048701611dd3565b0382611bcf565b60808601528051612738816127198160058701611dd3565b60a08601528051612750816127198160068701611dd3565b60c08601528051612768816127198160078701611dd3565b60e08601528051612780816127198160088701611dd3565b61010086015251612798816127198160098601611dd3565b6101208501520154910152565b604051906127b282611b98565b600061014083828152826020820152826040820152606083818301528060808301528060a08301528060c08301528060e0830152806101008301526101208201520152565b600019811461043e5760010190565b80518210156124c05760209160051b01019056feecc0b69b80fd1aaf501f71d1e78c8f3ab0b0636a54ed6e1180fdf585dbec2266a26469706673582212206e1cd8f22e7cb2c0449b7a654e39055934c7759db9e8c94ba9a325a905a3390d64736f6c63430008110033",
  "immutableReferences": {},
  "source": "// SPDX-License-Identifier: MIT\npragma solidity >=0.7.0 <0.9.0;\n\nimport \"@openzeppelin/contracts/token/ERC721/ERC721.sol\";\nimport \"@openzeppelin/contracts/token/ERC721/extensions/ERC721Enumerable.sol\";\nimport \"@openzeppelin/contracts/access/Ownable.sol\";\nimport \"@openzeppelin/contracts/utils/Counters.sol\";\n\ncontract Garment is ERC721Enumerable, Ownable {\n    using Strings for uint256;\n\n    using Counters for Counters.Counter;\n    Counters.Counter private germantIds; //Permette di gestire gli ID degli NFT\n    uint256 public cost = 0.01 ether; //Costo di creazione di un indumento\n    uint256 public artistRoyaltyPercentage = 10; // Percentuale fissa della commissione dell'artista\n\n    event Log(string message);\n\n    event Sale(\n        uint256 id,\n        address owner,\n        address artist,\n        uint256 price,\n        string title,\n        string description,\n        string size,\n        string color,\n        string fabric,\n        string image,\n        uint256 timestamp\n    );\n\n    struct GarmentDetails {\n        uint256 id;\n        address owner;\n        address artist;\n        uint256 price;\n        string title;\n        string description;\n        string size; //Taglia dell'indumento\n        string color; //Colore dell'indumento\n        string fabric; //Tessuto dell'indumento\n        string image; //Immagine (base64) dell'indumento\n        uint256 timestamp; //Quando viene creato/aggiornato l'indumento\n    }\n\n    GarmentDetails[] minted;\n\n    constructor(\n        string memory _name,\n        string memory _symbol\n    ) ERC721(_name, _symbol) {\n    }\n\n    function createGarment(\n        uint256 price,\n        string memory title,\n        string memory description,\n        string memory size,\n        string memory color,\n        string memory fabric,\n        string memory image\n    ) external payable {\n        require(msg.value >= cost, \"Ether too low for minting!\");\n        //require(msg.sender == owner(), \"The owner of the marketplace cannot create NFT!\");\n\n        uint256 artistRoyalty = (msg.value * artistRoyaltyPercentage) / 100;\n        uint256 marketplaceFee = msg.value - artistRoyalty;\n\n        payTo(msg.sender, artistRoyalty); // Pagamento della commissione all'artista\n        payTo(owner(), marketplaceFee); // Pagamento della commissione al creatore del marketplace\n\n        // Genero il nuovo ID per l'NFT\n        germantIds.increment();\n        uint256 newTokenId = germantIds.current();\n\n        // Creo il nuovo NFT e lo assegno all'artista come proprietario\n        _safeMint(msg.sender, newTokenId);\n\n        GarmentDetails memory newGarment = GarmentDetails(\n            newTokenId,\n            msg.sender,\n            msg.sender,\n            price,\n            title,\n            description,\n            size,\n            color,\n            fabric,\n            image,\n            block.timestamp\n        );\n\n        minted.push(newGarment);\n\n        emit Sale(\n            newTokenId,\n            msg.sender,\n            msg.sender,\n            price,\n            title,\n            description,\n            size,\n            color,\n            fabric,\n            image,\n            block.timestamp\n        );\n    }\n\n    // sends ethers to a specific account\n    function payTo(address to, uint256 amount) internal {\n        (bool success, ) = payable(to).call{value: amount}(\"\");\n        require(success);\n    }\n\n    function purchaseGarment(uint256 tokenId) external payable {\n        // Verifica che il token esiste\n        require(_exists(tokenId), \"Token does not exist\");\n\n        // Ottieni i dettagli del NFT\n        GarmentDetails storage garment = minted[tokenId - 1];\n        // Verifica che il prezzo pagato corrisponda al prezzo dell'indumento\n        require(msg.value >= garment.price, \"Ether too low for purchase!\");\n        // Verifica che il proprietario non pu acquistare i propri NFT\n        //require(_isApprovedOrOwner(msg.sender, tokenId), \"Operation Not Allowed!\");\n\n        // Calcola le commissioni per l'artista e il creatore del marketplace\n        uint256 artistRoyalty = (garment.price * artistRoyaltyPercentage) / 100;\n\n        // Effettua i pagamenti\n        payTo(garment.owner, garment.price); // Pagamento al venditore originale\n        payTo(garment.artist, artistRoyalty); // Pagamento della commissione all'artista\n\n        // Trasferisco NFT\n        _transfer(garment.owner, msg.sender, tokenId);\n\n        //Aggiorno il nuovo proprietario del NFT\n        garment.owner = msg.sender;\n        minted[tokenId - 1] = garment;\n\n        // Emetti l'evento di vendita\n        emit Sale(\n            minted[tokenId - 1].id,\n            msg.sender,\n            minted[tokenId - 1].artist,\n            minted[tokenId - 1].price,\n            minted[tokenId - 1].title,\n            minted[tokenId - 1].description,\n            minted[tokenId - 1].size,\n            minted[tokenId - 1].color,\n            minted[tokenId - 1].fabric,\n            minted[tokenId - 1].image,\n            minted[tokenId - 1].timestamp\n        );\n    }\n\n    // changes the price of an NFT\n    function changePrice(uint256 id, uint256 newPrice) external returns (bool) {\n        require(newPrice > 0 ether, \"Ether too low!\");\n        require(_isApprovedOrOwner(msg.sender, id), \"Operation Not Allowed!\");\n\n        minted[id - 1].price = newPrice;\n        return true;\n    }\n\n    // returns all minted NFTs\n    function getAllNFTs() external view returns (GarmentDetails[] memory) {\n        return minted;\n    }\n\n    // returns a specific NFT by token id\n    function getNFT(uint256 id) external view returns (GarmentDetails memory) {\n        return minted[id - 1];\n    }\n\n    function getGarmentsByOwner() external view returns (GarmentDetails[] memory) {\n        uint256[] memory tokenIds = getTokenIdsByOwner(msg.sender);\n        uint256 tokenCount = tokenIds.length;\n        \n        GarmentDetails[] memory garments = new GarmentDetails[](tokenCount);\n        uint256 count = 0;\n\n        for (uint256 i = 0; i < tokenCount; i++) {\n            uint256 tokenId = tokenIds[i];\n            GarmentDetails memory garment = minted[tokenId - 1];\n        \n            if (garment.owner == msg.sender) {\n                garments[count] = garment;\n                count++;\n            }\n        }\n        \n        return garments;\n    }\n\n    function getTokenIdsByOwner(address owner) private view returns (uint256[] memory) {\n        uint256 tokenCount = balanceOf(owner);\n        uint256[] memory tokenIds = new uint256[](tokenCount);\n        \n        for (uint256 i = 0; i < tokenCount; i++) {\n            tokenIds[i] = tokenOfOwnerByIndex(owner, i);\n        }\n        \n        return tokenIds;\n    }\n    \n}",
  "sourcePath": "/Users/gerardo/Documents/Universita/Magistrale/Secondo Anno/Sicurezza dei Dati/Progetto/contracts/Garment.sol",
  "compiler": {
    "name": "solc",
    "version": "0.8.17+commit.8df45f5f.Emscripten.clang"
  },
  "schemaVersion": "3.4.14",
  "updatedAt": "2023-06-26T00:31:01.747Z",
  "devdoc": {
    "kind": "dev",
    "methods": {
      "approve(address,uint256)": {
        "details": "See {IERC721-approve}."
      },
      "balanceOf(address)": {
        "details": "See {IERC721-balanceOf}."
      },
      "getApproved(uint256)": {
        "details": "See {IERC721-getApproved}."
      },
      "isApprovedForAll(address,address)": {
        "details": "See {IERC721-isApprovedForAll}."
      },
      "name()": {
        "details": "See {IERC721Metadata-name}."
      },
      "owner()": {
        "details": "Returns the address of the current owner."
      },
      "ownerOf(uint256)": {
        "details": "See {IERC721-ownerOf}."
      },
      "renounceOwnership()": {
        "details": "Leaves the contract without owner. It will not be possible to call `onlyOwner` functions. Can only be called by the current owner. NOTE: Renouncing ownership will leave the contract without an owner, thereby disabling any functionality that is only available to the owner."
      },
      "safeTransferFrom(address,address,uint256)": {
        "details": "See {IERC721-safeTransferFrom}."
      },
      "safeTransferFrom(address,address,uint256,bytes)": {
        "details": "See {IERC721-safeTransferFrom}."
      },
      "setApprovalForAll(address,bool)": {
        "details": "See {IERC721-setApprovalForAll}."
      },
      "supportsInterface(bytes4)": {
        "details": "See {IERC165-supportsInterface}."
      },
      "symbol()": {
        "details": "See {IERC721Metadata-symbol}."
      },
      "tokenByIndex(uint256)": {
        "details": "See {IERC721Enumerable-tokenByIndex}."
      },
      "tokenOfOwnerByIndex(address,uint256)": {
        "details": "See {IERC721Enumerable-tokenOfOwnerByIndex}."
      },
      "tokenURI(uint256)": {
        "details": "See {IERC721Metadata-tokenURI}."
      },
      "totalSupply()": {
        "details": "See {IERC721Enumerable-totalSupply}."
      },
      "transferFrom(address,address,uint256)": {
        "details": "See {IERC721-transferFrom}."
      },
      "transferOwnership(address)": {
        "details": "Transfers ownership of the contract to a new account (`newOwner`). Can only be called by the current owner."
      }
    },
    "version": 1
  },
  "userdoc": {
    "kind": "user",
    "methods": {},
    "version": 1
  }
}